{
  "contractName": "PatientRecord",
  "abi": [
    {
      "inputs": [],
      "stateMutability": "nonpayable",
      "type": "constructor"
    },
    {
      "inputs": [
        {
          "internalType": "address",
          "name": "",
          "type": "address"
        },
        {
          "internalType": "address",
          "name": "",
          "type": "address"
        }
      ],
      "name": "authorizedDoctors",
      "outputs": [
        {
          "internalType": "bool",
          "name": "",
          "type": "bool"
        }
      ],
      "stateMutability": "view",
      "type": "function",
      "constant": true
    },
    {
      "inputs": [
        {
          "internalType": "address",
          "name": "",
          "type": "address"
        }
      ],
      "name": "isDoctor",
      "outputs": [
        {
          "internalType": "bool",
          "name": "",
          "type": "bool"
        }
      ],
      "stateMutability": "view",
      "type": "function",
      "constant": true
    },
    {
      "inputs": [
        {
          "internalType": "address",
          "name": "",
          "type": "address"
        }
      ],
      "name": "isPatient",
      "outputs": [
        {
          "internalType": "bool",
          "name": "",
          "type": "bool"
        }
      ],
      "stateMutability": "view",
      "type": "function",
      "constant": true
    },
    {
      "inputs": [],
      "name": "owner",
      "outputs": [
        {
          "internalType": "address",
          "name": "",
          "type": "address"
        }
      ],
      "stateMutability": "view",
      "type": "function",
      "constant": true
    },
    {
      "inputs": [
        {
          "internalType": "address",
          "name": "",
          "type": "address"
        },
        {
          "internalType": "uint256",
          "name": "",
          "type": "uint256"
        }
      ],
      "name": "patientRecords",
      "outputs": [
        {
          "internalType": "string",
          "name": "data",
          "type": "string"
        },
        {
          "internalType": "uint256",
          "name": "timestamp",
          "type": "uint256"
        },
        {
          "internalType": "address",
          "name": "addedBy",
          "type": "address"
        }
      ],
      "stateMutability": "view",
      "type": "function",
      "constant": true
    },
    {
      "inputs": [
        {
          "internalType": "address",
          "name": "doctor",
          "type": "address"
        }
      ],
      "name": "registerDoctor",
      "outputs": [],
      "stateMutability": "nonpayable",
      "type": "function"
    },
    {
      "inputs": [],
      "name": "registerPatient",
      "outputs": [],
      "stateMutability": "nonpayable",
      "type": "function"
    },
    {
      "inputs": [
        {
          "internalType": "address",
          "name": "doctor",
          "type": "address"
        }
      ],
      "name": "grantAccess",
      "outputs": [],
      "stateMutability": "nonpayable",
      "type": "function"
    },
    {
      "inputs": [
        {
          "internalType": "address",
          "name": "doctor",
          "type": "address"
        }
      ],
      "name": "revokeAccess",
      "outputs": [],
      "stateMutability": "nonpayable",
      "type": "function"
    },
    {
      "inputs": [
        {
          "internalType": "address",
          "name": "patient",
          "type": "address"
        },
        {
          "internalType": "string",
          "name": "data",
          "type": "string"
        }
      ],
      "name": "addRecord",
      "outputs": [],
      "stateMutability": "nonpayable",
      "type": "function"
    },
    {
      "inputs": [
        {
          "internalType": "address",
          "name": "patient",
          "type": "address"
        }
      ],
      "name": "getRecords",
      "outputs": [
        {
          "components": [
            {
              "internalType": "string",
              "name": "data",
              "type": "string"
            },
            {
              "internalType": "uint256",
              "name": "timestamp",
              "type": "uint256"
            },
            {
              "internalType": "address",
              "name": "addedBy",
              "type": "address"
            }
          ],
          "internalType": "struct PatientRecord.Record[]",
          "name": "",
          "type": "tuple[]"
        }
      ],
      "stateMutability": "view",
      "type": "function",
      "constant": true
    }
  ],
  "bytecode": "0x608060405234801561001057600080fd5b50336000806101000a81548173ffffffffffffffffffffffffffffffffffffffff021916908373ffffffffffffffffffffffffffffffffffffffff1602179055506117d2806100606000396000f3fe608060405234801561001057600080fd5b50600436106100a95760003560e01c806385e685311161007157806385e685311461013c5780638da5cb5b146101585780638f9c79ed1461017657806394f0df61146101a6578063996440c6146101d8578063a0076e8414610208576100a9565b80630ae5e739146100ae5780631cd5c6e9146100ca57806366858ec8146100fa578063699ca99814610116578063822d388514610132575b600080fd5b6100c860048036038101906100c39190610f0f565b610238565b005b6100e460048036038101906100df9190610f38565b6103e8565b6040516100f19190611423565b60405180910390f35b610114600480360381019061010f9190610f74565b610417565b005b610130600480360381019061012b9190610f0f565b610679565b005b61013a610761565b005b61015660048036038101906101519190610f0f565b610848565b005b61016061096c565b60405161016d91906113e6565b60405180910390f35b610190600480360381019061018b9190610f0f565b610990565b60405161019d9190611423565b60405180910390f35b6101c060048036038101906101bb9190610fc8565b6109b0565b6040516101cf9392919061143e565b60405180910390f35b6101f260048036038101906101ed9190610f0f565b610a9f565b6040516101ff9190611423565b60405180910390f35b610222600480360381019061021d9190610f0f565b610abf565b60405161022f9190611401565b60405180910390f35b600260003373ffffffffffffffffffffffffffffffffffffffff1673ffffffffffffffffffffffffffffffffffffffff16815260200190815260200160002060009054906101000a900460ff166102c4576040517f08c379a00000000000000000000000000000000000000000000000000000000081526004016102bb9061151c565b60405180910390fd5b600160008273ffffffffffffffffffffffffffffffffffffffff1673ffffffffffffffffffffffffffffffffffffffff16815260200190815260200160002060009054906101000a900460ff16610350576040517f08c379a0000000000000000000000000000000000000000000000000000000008152600401610347906114dc565b60405180910390fd5b6001600360003373ffffffffffffffffffffffffffffffffffffffff1673ffffffffffffffffffffffffffffffffffffffff16815260200190815260200160002060008373ffffffffffffffffffffffffffffffffffffffff1673ffffffffffffffffffffffffffffffffffffffff16815260200190815260200160002060006101000a81548160ff02191690831515021790555050565b60036020528160005260406000206020528060005260406000206000915091509054906101000a900460ff1681565b600260008373ffffffffffffffffffffffffffffffffffffffff1673ffffffffffffffffffffffffffffffffffffffff16815260200190815260200160002060009054906101000a900460ff166104a3576040517f08c379a000000000000000000000000000000000000000000000000000000000815260040161049a9061155c565b60405180910390fd5b600360008373ffffffffffffffffffffffffffffffffffffffff1673ffffffffffffffffffffffffffffffffffffffff16815260200190815260200160002060003373ffffffffffffffffffffffffffffffffffffffff1673ffffffffffffffffffffffffffffffffffffffff16815260200190815260200160002060009054906101000a900460ff1661056c576040517f08c379a0000000000000000000000000000000000000000000000000000000008152600401610563906114fc565b60405180910390fd5b600460008373ffffffffffffffffffffffffffffffffffffffff1673ffffffffffffffffffffffffffffffffffffffff16815260200190815260200160002060405180606001604052808381526020014281526020013373ffffffffffffffffffffffffffffffffffffffff1681525090806001815401808255809150506001900390600052602060002090600302016000909190919091506000820151816000019080519060200190610621929190610dda565b506020820151816001015560408201518160020160006101000a81548173ffffffffffffffffffffffffffffffffffffffff021916908373ffffffffffffffffffffffffffffffffffffffff16021790555050505050565b60008054906101000a900473ffffffffffffffffffffffffffffffffffffffff1673ffffffffffffffffffffffffffffffffffffffff163373ffffffffffffffffffffffffffffffffffffffff1614610707576040517f08c379a00000000000000000000000000000000000000000000000000000000081526004016106fe9061147c565b60405180910390fd5b60018060008373ffffffffffffffffffffffffffffffffffffffff1673ffffffffffffffffffffffffffffffffffffffff16815260200190815260200160002060006101000a81548160ff02191690831515021790555050565b600260003373ffffffffffffffffffffffffffffffffffffffff1673ffffffffffffffffffffffffffffffffffffffff16815260200190815260200160002060009054906101000a900460ff16156107ee576040517f08c379a00000000000000000000000000000000000000000000000000000000081526004016107e5906114bc565b60405180910390fd5b6001600260003373ffffffffffffffffffffffffffffffffffffffff1673ffffffffffffffffffffffffffffffffffffffff16815260200190815260200160002060006101000a81548160ff021916908315150217905550565b600260003373ffffffffffffffffffffffffffffffffffffffff1673ffffffffffffffffffffffffffffffffffffffff16815260200190815260200160002060009054906101000a900460ff166108d4576040517f08c379a00000000000000000000000000000000000000000000000000000000081526004016108cb9061149c565b60405180910390fd5b6000600360003373ffffffffffffffffffffffffffffffffffffffff1673ffffffffffffffffffffffffffffffffffffffff16815260200190815260200160002060008373ffffffffffffffffffffffffffffffffffffffff1673ffffffffffffffffffffffffffffffffffffffff16815260200190815260200160002060006101000a81548160ff02191690831515021790555050565b60008054906101000a900473ffffffffffffffffffffffffffffffffffffffff1681565b60026020528060005260406000206000915054906101000a900460ff1681565b600460205281600052604060002081815481106109cc57600080fd5b9060005260206000209060030201600091509150508060000180546109f0906116cd565b80601f0160208091040260200160405190810160405280929190818152602001828054610a1c906116cd565b8015610a695780601f10610a3e57610100808354040283529160200191610a69565b820191906000526020600020905b815481529060010190602001808311610a4c57829003601f168201915b5050505050908060010154908060020160009054906101000a900473ffffffffffffffffffffffffffffffffffffffff16905083565b60016020528060005260406000206000915054906101000a900460ff1681565b6060600260008373ffffffffffffffffffffffffffffffffffffffff1673ffffffffffffffffffffffffffffffffffffffff16815260200190815260200160002060009054906101000a900460ff16610b4d576040517f08c379a0000000000000000000000000000000000000000000000000000000008152600401610b449061155c565b60405180910390fd5b8173ffffffffffffffffffffffffffffffffffffffff163373ffffffffffffffffffffffffffffffffffffffff161480610c0d5750600360008373ffffffffffffffffffffffffffffffffffffffff1673ffffffffffffffffffffffffffffffffffffffff16815260200190815260200160002060003373ffffffffffffffffffffffffffffffffffffffff1673ffffffffffffffffffffffffffffffffffffffff16815260200190815260200160002060009054906101000a900460ff165b610c4c576040517f08c379a0000000000000000000000000000000000000000000000000000000008152600401610c439061153c565b60405180910390fd5b600460008373ffffffffffffffffffffffffffffffffffffffff1673ffffffffffffffffffffffffffffffffffffffff168152602001908152602001600020805480602002602001604051908101604052809291908181526020016000905b82821015610dcf5783829060005260206000209060030201604051806060016040529081600082018054610cde906116cd565b80601f0160208091040260200160405190810160405280929190818152602001828054610d0a906116cd565b8015610d575780601f10610d2c57610100808354040283529160200191610d57565b820191906000526020600020905b815481529060010190602001808311610d3a57829003601f168201915b50505050508152602001600182015481526020016002820160009054906101000a900473ffffffffffffffffffffffffffffffffffffffff1673ffffffffffffffffffffffffffffffffffffffff1673ffffffffffffffffffffffffffffffffffffffff168152505081526020019060010190610cab565b505050509050919050565b828054610de6906116cd565b90600052602060002090601f016020900481019282610e085760008555610e4f565b82601f10610e2157805160ff1916838001178555610e4f565b82800160010185558215610e4f579182015b82811115610e4e578251825591602001919060010190610e33565b5b509050610e5c9190610e60565b5090565b5b80821115610e79576000816000905550600101610e61565b5090565b6000610e90610e8b846115ad565b61157c565b905082815260208101848484011115610ea857600080fd5b610eb384828561168b565b509392505050565b600081359050610eca8161176e565b92915050565b600082601f830112610ee157600080fd5b8135610ef1848260208601610e7d565b91505092915050565b600081359050610f0981611785565b92915050565b600060208284031215610f2157600080fd5b6000610f2f84828501610ebb565b91505092915050565b60008060408385031215610f4b57600080fd5b6000610f5985828601610ebb565b9250506020610f6a85828601610ebb565b9150509250929050565b60008060408385031215610f8757600080fd5b6000610f9585828601610ebb565b925050602083013567ffffffffffffffff811115610fb257600080fd5b610fbe85828601610ed0565b9150509250929050565b60008060408385031215610fdb57600080fd5b6000610fe985828601610ebb565b9250506020610ffa85828601610efa565b9150509250929050565b60006110108383611378565b905092915050565b61102181611643565b82525050565b61103081611643565b82525050565b6000611041826115ed565b61104b8185611610565b93508360208202850161105d856115dd565b8060005b85811015611099578484038952815161107a8582611004565b945061108583611603565b925060208a01995050600181019050611061565b50829750879550505050505092915050565b6110b481611655565b82525050565b60006110c5826115f8565b6110cf8185611621565b93506110df81856020860161169a565b6110e88161175d565b840191505092915050565b60006110fe826115f8565b6111088185611632565b935061111881856020860161169a565b6111218161175d565b840191505092915050565b6000611139602183611632565b91507f4f6e6c79206f776e65722063616e2063616c6c20746869732066756e6374696f60008301527f6e000000000000000000000000000000000000000000000000000000000000006020830152604082019050919050565b600061119f601f83611632565b91507f4f6e6c792070617469656e74732063616e207265766f6b6520616363657373006000830152602082019050919050565b60006111df601d83611632565b91507f416c726561647920726567697374657265642061732070617469656e740000006000830152602082019050919050565b600061121f602283611632565b91507f41646472657373206973206e6f742061207265676973746572656420646f637460008301527f6f720000000000000000000000000000000000000000000000000000000000006020830152604082019050919050565b6000611285601d83611632565b91507f4e6f7420617574686f72697a656420746f20616464207265636f7264730000006000830152602082019050919050565b60006112c5601e83611632565b91507f4f6e6c792070617469656e74732063616e206772616e742061636365737300006000830152602082019050919050565b6000611305601e83611632565b91507f4e6f7420617574686f72697a656420746f2076696577207265636f72647300006000830152602082019050919050565b6000611345601683611632565b91507f50617469656e7420646f6573206e6f74206578697374000000000000000000006000830152602082019050919050565b6000606083016000830151848203600086015261139582826110ba565b91505060208301516113aa60208601826113c8565b5060408301516113bd6040860182611018565b508091505092915050565b6113d181611681565b82525050565b6113e081611681565b82525050565b60006020820190506113fb6000830184611027565b92915050565b6000602082019050818103600083015261141b8184611036565b905092915050565b600060208201905061143860008301846110ab565b92915050565b6000606082019050818103600083015261145881866110f3565b905061146760208301856113d7565b6114746040830184611027565b949350505050565b600060208201905081810360008301526114958161112c565b9050919050565b600060208201905081810360008301526114b581611192565b9050919050565b600060208201905081810360008301526114d5816111d2565b9050919050565b600060208201905081810360008301526114f581611212565b9050919050565b6000602082019050818103600083015261151581611278565b9050919050565b60006020820190508181036000830152611535816112b8565b9050919050565b60006020820190508181036000830152611555816112f8565b9050919050565b6000602082019050818103600083015261157581611338565b9050919050565b6000604051905081810181811067ffffffffffffffff821117156115a3576115a261172e565b5b8060405250919050565b600067ffffffffffffffff8211156115c8576115c761172e565b5b601f19601f8301169050602081019050919050565b6000819050602082019050919050565b600081519050919050565b600081519050919050565b6000602082019050919050565b600082825260208201905092915050565b600082825260208201905092915050565b600082825260208201905092915050565b600061164e82611661565b9050919050565b60008115159050919050565b600073ffffffffffffffffffffffffffffffffffffffff82169050919050565b6000819050919050565b82818337600083830152505050565b60005b838110156116b857808201518184015260208101905061169d565b838111156116c7576000848401525b50505050565b600060028204905060018216806116e557607f821691505b602082108114156116f9576116f86116ff565b5b50919050565b7f4e487b7100000000000000000000000000000000000000000000000000000000600052602260045260246000fd5b7f4e487b7100000000000000000000000000000000000000000000000000000000600052604160045260246000fd5b6000601f19601f8301169050919050565b61177781611643565b811461178257600080fd5b50565b61178e81611681565b811461179957600080fd5b5056fea26469706673582212204927dda66c979328361621e5ddc031d3f06dbbbd33ab67d45be160283980e51564736f6c63430008000033",
  "immutableReferences": {},
  "source": "pragma solidity ^0.8.0;\r\n\r\ncontract PatientRecord {\r\n    address public owner;\r\n\r\n    struct Record {\r\n        string data;\r\n        uint timestamp;\r\n        address addedBy;\r\n    }\r\n\r\n    mapping(address => bool) public isDoctor;\r\n    mapping(address => bool) public isPatient;\r\n    mapping(address => mapping(address => bool)) public authorizedDoctors;\r\n    mapping(address => Record[]) public patientRecords;\r\n\r\n    constructor() {\r\n        owner = msg.sender;\r\n    }\r\n\r\n    modifier onlyOwner() {\r\n        require(msg.sender == owner, \"Only owner can call this function\");\r\n        _;\r\n    }\r\n\r\n    // Register a doctor (only owner)\r\n    function registerDoctor(address doctor) public onlyOwner {\r\n        isDoctor[doctor] = true;\r\n    }\r\n\r\n    // Register as a patient (anyone)\r\n    function registerPatient() public {\r\n        require(!isPatient[msg.sender], \"Already registered as patient\");\r\n        isPatient[msg.sender] = true;\r\n    }\r\n\r\n    // Patient grants access to a doctor\r\n    function grantAccess(address doctor) public {\r\n        require(isPatient[msg.sender], \"Only patients can grant access\");\r\n        require(isDoctor[doctor], \"Address is not a registered doctor\");\r\n        authorizedDoctors[msg.sender][doctor] = true;\r\n    }\r\n\r\n    // Patient revokes access from a doctor\r\n    function revokeAccess(address doctor) public {\r\n        require(isPatient[msg.sender], \"Only patients can revoke access\");\r\n        authorizedDoctors[msg.sender][doctor] = false;\r\n    }\r\n\r\n    // Add a record for a patient (only authorized doctors)\r\n    function addRecord(address patient, string memory data) public {\r\n        require(isPatient[patient], \"Patient does not exist\");\r\n        require(authorizedDoctors[patient][msg.sender], \"Not authorized to add records\");\r\n        patientRecords[patient].push(Record(data, block.timestamp, msg.sender));\r\n    }\r\n\r\n    // View patient records (patient or authorized doctor)\r\n    function getRecords(address patient) public view returns (Record[] memory) {\r\n        require(isPatient[patient], \"Patient does not exist\");\r\n        require(msg.sender == patient || authorizedDoctors[patient][msg.sender], \"Not authorized to view records\");\r\n        return patientRecords[patient];\r\n    }\r\n}",
  "sourcePath": "E:\\Temp Files\\projects\\HEALChain\\web_prog_project-main\\web_prog_project-main - Copy\\contracts\\PatientRecord.sol",
  "compiler": {
    "name": "solc",
    "version": "0.8.0+commit.c7dfd78e.Emscripten.clang"
  },
  "schemaVersion": "3.4.16",
  "updatedAt": "2025-03-23T17:21:06.649Z",
  "networkType": "ethereum",
  "devdoc": {
    "kind": "dev",
    "methods": {},
    "version": 1
  },
  "userdoc": {
    "kind": "user",
    "methods": {},
    "version": 1
  }
}